{
  "_format": "hh-sol-artifact-1",
  "contractName": "RociOct20",
  "sourceName": "contracts/RociOct20.sol",
  "abi": [
    {
      "inputs": [
        {
          "internalType": "contract RociERC20",
          "name": "rociERC20_",
          "type": "address"
        }
      ],
      "stateMutability": "nonpayable",
      "type": "constructor"
    },
    {
      "inputs": [
        {
          "internalType": "address",
          "name": "to",
          "type": "address"
        },
        {
          "internalType": "uint256",
          "name": "amount",
          "type": "uint256"
        }
      ],
      "name": "mint",
      "outputs": [],
      "stateMutability": "nonpayable",
      "type": "function"
    },
    {
      "inputs": [
        {
          "internalType": "address",
          "name": "from",
          "type": "address"
        },
        {
          "internalType": "address",
          "name": "to",
          "type": "address"
        },
        {
          "internalType": "uint256",
          "name": "amount",
          "type": "uint256"
        }
      ],
      "name": "transfer",
      "outputs": [],
      "stateMutability": "nonpayable",
      "type": "function"
    }
  ],
  "bytecode": "0x608060405234801561001057600080fd5b5060405161061a38038061061a833981810160405281019061003291906100fd565b600073ffffffffffffffffffffffffffffffffffffffff168173ffffffffffffffffffffffffffffffffffffffff1614156100a2576040517f08c379a000000000000000000000000000000000000000000000000000000000815260040161009990610149565b60405180910390fd5b806000806101000a81548173ffffffffffffffffffffffffffffffffffffffff021916908373ffffffffffffffffffffffffffffffffffffffff160217905550506101fe565b6000815190506100f7816101e7565b92915050565b60006020828403121561010f57600080fd5b600061011d848285016100e8565b91505092915050565b6000610133601e83610169565b915061013e826101be565b602082019050919050565b6000602082019050818103600083015261016281610126565b9050919050565b600082825260208201905092915050565b60006101858261019e565b9050919050565b60006101978261017a565b9050919050565b600073ffffffffffffffffffffffffffffffffffffffff82169050919050565b7f436f6e74726163742063616e2774206265207a65726f20616464726573730000600082015250565b6101f08161018c565b81146101fb57600080fd5b50565b61040d8061020d6000396000f3fe608060405234801561001057600080fd5b50600436106100365760003560e01c806340c10f191461003b578063beabacc814610057575b600080fd5b6100556004803603810190610050919061024b565b610073565b005b610071600480360381019061006c91906101fc565b610106565b005b60008054906101000a900473ffffffffffffffffffffffffffffffffffffffff1673ffffffffffffffffffffffffffffffffffffffff16630d4d15138383306040518463ffffffff1660e01b81526004016100d093929190610313565b600060405180830381600087803b1580156100ea57600080fd5b505af11580156100fe573d6000803e3d6000fd5b505050505050565b60008054906101000a900473ffffffffffffffffffffffffffffffffffffffff1673ffffffffffffffffffffffffffffffffffffffff16635fc9309c848484306040518563ffffffff1660e01b815260040161016594939291906102ce565b602060405180830381600087803b15801561017f57600080fd5b505af1158015610193573d6000803e3d6000fd5b505050506040513d601f19601f820116820180604052508101906101b79190610287565b50505050565b6000813590506101cc81610392565b92915050565b6000815190506101e1816103a9565b92915050565b6000813590506101f6816103c0565b92915050565b60008060006060848603121561021157600080fd5b600061021f868287016101bd565b9350506020610230868287016101bd565b9250506040610241868287016101e7565b9150509250925092565b6000806040838503121561025e57600080fd5b600061026c858286016101bd565b925050602061027d858286016101e7565b9150509250929050565b60006020828403121561029957600080fd5b60006102a7848285016101d2565b91505092915050565b6102b98161034a565b82525050565b6102c881610388565b82525050565b60006080820190506102e360008301876102b0565b6102f060208301866102b0565b6102fd60408301856102bf565b61030a60608301846102b0565b95945050505050565b600060608201905061032860008301866102b0565b61033560208301856102bf565b61034260408301846102b0565b949350505050565b600061035582610368565b9050919050565b60008115159050919050565b600073ffffffffffffffffffffffffffffffffffffffff82169050919050565b6000819050919050565b61039b8161034a565b81146103a657600080fd5b50565b6103b28161035c565b81146103bd57600080fd5b50565b6103c981610388565b81146103d457600080fd5b5056fea264697066735822122006b9185209b6fce8c55e58dfb966bf284552c97aef3e63dcdf05542b0ce497f864736f6c63430008040033",
  "linkReferences": {},
  "deployedLinkReferences": {}
}