{
  "_format": "hh-sol-artifact-1",
  "contractName": "RociERC20",
  "sourceName": "contracts/test/RociERC20.sol",
  "abi": [
    {
      "anonymous": false,
      "inputs": [
        {
          "indexed": true,
          "internalType": "address",
          "name": "owner",
          "type": "address"
        },
        {
          "indexed": true,
          "internalType": "address",
          "name": "spender",
          "type": "address"
        },
        {
          "indexed": false,
          "internalType": "uint256",
          "name": "value",
          "type": "uint256"
        }
      ],
      "name": "Approval",
      "type": "event"
    },
    {
      "anonymous": false,
      "inputs": [
        {
          "indexed": true,
          "internalType": "address",
          "name": "from",
          "type": "address"
        },
        {
          "indexed": true,
          "internalType": "address",
          "name": "to",
          "type": "address"
        },
        {
          "indexed": false,
          "internalType": "uint256",
          "name": "value",
          "type": "uint256"
        }
      ],
      "name": "Transfer",
      "type": "event"
    },
    {
      "inputs": [
        {
          "internalType": "address",
          "name": "_contract",
          "type": "address"
        }
      ],
      "name": "addContract",
      "outputs": [],
      "stateMutability": "nonpayable",
      "type": "function"
    },
    {
      "inputs": [
        {
          "internalType": "address",
          "name": "",
          "type": "address"
        },
        {
          "internalType": "address",
          "name": "",
          "type": "address"
        }
      ],
      "name": "allowance",
      "outputs": [
        {
          "internalType": "uint256",
          "name": "",
          "type": "uint256"
        }
      ],
      "stateMutability": "view",
      "type": "function"
    },
    {
      "inputs": [
        {
          "internalType": "uint256",
          "name": "",
          "type": "uint256"
        }
      ],
      "name": "allowedContracts",
      "outputs": [
        {
          "internalType": "address",
          "name": "",
          "type": "address"
        }
      ],
      "stateMutability": "view",
      "type": "function"
    },
    {
      "inputs": [
        {
          "internalType": "address",
          "name": "spender",
          "type": "address"
        },
        {
          "internalType": "uint256",
          "name": "amount",
          "type": "uint256"
        }
      ],
      "name": "approve",
      "outputs": [
        {
          "internalType": "bool",
          "name": "",
          "type": "bool"
        }
      ],
      "stateMutability": "nonpayable",
      "type": "function"
    },
    {
      "inputs": [
        {
          "internalType": "address",
          "name": "",
          "type": "address"
        }
      ],
      "name": "balanceOf",
      "outputs": [
        {
          "internalType": "uint256",
          "name": "",
          "type": "uint256"
        }
      ],
      "stateMutability": "view",
      "type": "function"
    },
    {
      "inputs": [
        {
          "internalType": "address",
          "name": "",
          "type": "address"
        },
        {
          "internalType": "address",
          "name": "",
          "type": "address"
        }
      ],
      "name": "contractBalanceOf",
      "outputs": [
        {
          "internalType": "uint256",
          "name": "",
          "type": "uint256"
        }
      ],
      "stateMutability": "view",
      "type": "function"
    },
    {
      "inputs": [
        {
          "internalType": "address",
          "name": "to",
          "type": "address"
        },
        {
          "internalType": "uint256",
          "name": "amount",
          "type": "uint256"
        },
        {
          "internalType": "address",
          "name": "_contract",
          "type": "address"
        }
      ],
      "name": "mint",
      "outputs": [],
      "stateMutability": "nonpayable",
      "type": "function"
    },
    {
      "inputs": [],
      "name": "totalSupply",
      "outputs": [
        {
          "internalType": "uint256",
          "name": "",
          "type": "uint256"
        }
      ],
      "stateMutability": "view",
      "type": "function"
    },
    {
      "inputs": [
        {
          "internalType": "address",
          "name": "recipient",
          "type": "address"
        },
        {
          "internalType": "uint256",
          "name": "amount",
          "type": "uint256"
        },
        {
          "internalType": "address",
          "name": "_contract",
          "type": "address"
        }
      ],
      "name": "transfer",
      "outputs": [
        {
          "internalType": "bool",
          "name": "",
          "type": "bool"
        }
      ],
      "stateMutability": "nonpayable",
      "type": "function"
    },
    {
      "inputs": [
        {
          "internalType": "address",
          "name": "from",
          "type": "address"
        },
        {
          "internalType": "address",
          "name": "to",
          "type": "address"
        },
        {
          "internalType": "uint256",
          "name": "amount",
          "type": "uint256"
        },
        {
          "internalType": "address",
          "name": "_contract",
          "type": "address"
        }
      ],
      "name": "transferFrom",
      "outputs": [
        {
          "internalType": "bool",
          "name": "",
          "type": "bool"
        }
      ],
      "stateMutability": "nonpayable",
      "type": "function"
    }
  ],
  "bytecode": "0x608060405234801561001057600080fd5b50611620806100206000396000f3fe608060405234801561001057600080fd5b506004361061009e5760003560e01c80635fc9309c116100665780635fc9309c1461015957806370a0823114610189578063af142c81146101b9578063dbba0f01146101e9578063dd62ed3e146102195761009e565b8063095ea7b3146100a35780630d4d1513146100d357806318160ddd146100ef5780635094cb4f1461010d5780635f539d691461013d575b600080fd5b6100bd60048036038101906100b8919061105e565b610249565b6040516100ca919061124f565b60405180910390f35b6100ed60048036038101906100e8919061109a565b61033b565b005b6100f761053b565b604051610104919061134a565b60405180910390f35b610127600480360381019061012291906110e9565b610544565b6040516101349190611234565b60405180910390f35b61015760048036038101906101529190610f96565b610583565b005b610173600480360381019061016e9190610ffb565b610641565b604051610180919061124f565b60405180910390f35b6101a3600480360381019061019e9190610f96565b610b2d565b6040516101b0919061134a565b60405180910390f35b6101d360048036038101906101ce9190610fbf565b610b45565b6040516101e0919061134a565b60405180910390f35b61020360048036038101906101fe919061109a565b610b6a565b604051610210919061124f565b60405180910390f35b610233600480360381019061022e9190610fbf565b610f47565b604051610240919061134a565b60405180910390f35b600081600560003373ffffffffffffffffffffffffffffffffffffffff1673ffffffffffffffffffffffffffffffffffffffff16815260200190815260200160002060008573ffffffffffffffffffffffffffffffffffffffff1673ffffffffffffffffffffffffffffffffffffffff168152602001908152602001600020819055508273ffffffffffffffffffffffffffffffffffffffff163373ffffffffffffffffffffffffffffffffffffffff167f8c5be1e5ebec7d5bd14f71427d1e84f3dd0314c0f7b2291e5b200ac8c7c3b92584604051610329919061134a565b60405180910390a36001905092915050565b600260008273ffffffffffffffffffffffffffffffffffffffff1673ffffffffffffffffffffffffffffffffffffffff16815260200190815260200160002060009054906101000a900460ff166103c7576040517f08c379a00000000000000000000000000000000000000000000000000000000081526004016103be9061126a565b60405180910390fd5b81600460008573ffffffffffffffffffffffffffffffffffffffff1673ffffffffffffffffffffffffffffffffffffffff168152602001908152602001600020546104129190611376565b60008190555081600054101561045d576040517f08c379a0000000000000000000000000000000000000000000000000000000008152600401610454906112aa565b60405180910390fd5b600054600460008573ffffffffffffffffffffffffffffffffffffffff1673ffffffffffffffffffffffffffffffffffffffff1681526020019081526020016000208190555081600360008573ffffffffffffffffffffffffffffffffffffffff1673ffffffffffffffffffffffffffffffffffffffff16815260200190815260200160002060008373ffffffffffffffffffffffffffffffffffffffff1673ffffffffffffffffffffffffffffffffffffffff168152602001908152602001600020600082825461052f9190611376565b92505081905550505050565b60008054905090565b6001818154811061055457600080fd5b906000526020600020016000915054906101000a900473ffffffffffffffffffffffffffffffffffffffff1681565b6001819080600181540180825580915050600190039060005260206000200160009091909190916101000a81548173ffffffffffffffffffffffffffffffffffffffff021916908373ffffffffffffffffffffffffffffffffffffffff1602179055506001600260008373ffffffffffffffffffffffffffffffffffffffff1673ffffffffffffffffffffffffffffffffffffffff16815260200190815260200160002060006101000a81548160ff02191690831515021790555050565b6000600260008373ffffffffffffffffffffffffffffffffffffffff1673ffffffffffffffffffffffffffffffffffffffff16815260200190815260200160002060009054906101000a900460ff166106cf576040517f08c379a00000000000000000000000000000000000000000000000000000000081526004016106c69061130a565b60405180910390fd5b6000600560008773ffffffffffffffffffffffffffffffffffffffff1673ffffffffffffffffffffffffffffffffffffffff16815260200190815260200160002060003373ffffffffffffffffffffffffffffffffffffffff1673ffffffffffffffffffffffffffffffffffffffff168152602001908152602001600020549050838161075c91906113cc565b600560008873ffffffffffffffffffffffffffffffffffffffff1673ffffffffffffffffffffffffffffffffffffffff16815260200190815260200160002060003373ffffffffffffffffffffffffffffffffffffffff1673ffffffffffffffffffffffffffffffffffffffff168152602001908152602001600020819055506000600460008773ffffffffffffffffffffffffffffffffffffffff1673ffffffffffffffffffffffffffffffffffffffff16815260200190815260200160002054905080858261082d9190611376565b101561086e576040517f08c379a0000000000000000000000000000000000000000000000000000000008152600401610865906112ca565b60405180910390fd5b848161087a9190611376565b600460008873ffffffffffffffffffffffffffffffffffffffff1673ffffffffffffffffffffffffffffffffffffffff168152602001908152602001600020819055506000600460008973ffffffffffffffffffffffffffffffffffffffff1673ffffffffffffffffffffffffffffffffffffffff16815260200190815260200160002054905085811015610944576040517f08c379a000000000000000000000000000000000000000000000000000000000815260040161093b9061128a565b60405180910390fd5b858161095091906113cc565b600460008a73ffffffffffffffffffffffffffffffffffffffff1673ffffffffffffffffffffffffffffffffffffffff1681526020019081526020016000208190555085600360008a73ffffffffffffffffffffffffffffffffffffffff1673ffffffffffffffffffffffffffffffffffffffff16815260200190815260200160002060008773ffffffffffffffffffffffffffffffffffffffff1673ffffffffffffffffffffffffffffffffffffffff1681526020019081526020016000206000828254610a1f91906113cc565b9250508190555085600360008973ffffffffffffffffffffffffffffffffffffffff1673ffffffffffffffffffffffffffffffffffffffff16815260200190815260200160002060008773ffffffffffffffffffffffffffffffffffffffff1673ffffffffffffffffffffffffffffffffffffffff1681526020019081526020016000206000828254610ab29190611376565b925050819055508673ffffffffffffffffffffffffffffffffffffffff168873ffffffffffffffffffffffffffffffffffffffff167fddf252ad1be2c89b69c2b068fc378daa952ba7f163c4a11628f55a4df523b3ef88604051610b16919061134a565b60405180910390a360019350505050949350505050565b60046020528060005260406000206000915090505481565b6003602052816000526040600020602052806000526040600020600091509150505481565b6000600260008373ffffffffffffffffffffffffffffffffffffffff1673ffffffffffffffffffffffffffffffffffffffff16815260200190815260200160002060009054906101000a900460ff16610bf8576040517f08c379a0000000000000000000000000000000000000000000000000000000008152600401610bef9061130a565b60405180910390fd5b6000600460003373ffffffffffffffffffffffffffffffffffffffff1673ffffffffffffffffffffffffffffffffffffffff16815260200190815260200160002054905083811015610c7f576040517f08c379a0000000000000000000000000000000000000000000000000000000008152600401610c76906112ea565b60405180910390fd5b8381610c8b91906113cc565b600460003373ffffffffffffffffffffffffffffffffffffffff1673ffffffffffffffffffffffffffffffffffffffff168152602001908152602001600020819055506000600460008773ffffffffffffffffffffffffffffffffffffffff1673ffffffffffffffffffffffffffffffffffffffff168152602001908152602001600020549050808582610d1f9190611376565b1015610d60576040517f08c379a0000000000000000000000000000000000000000000000000000000008152600401610d579061132a565b60405180910390fd5b8481610d6c9190611376565b600460008873ffffffffffffffffffffffffffffffffffffffff1673ffffffffffffffffffffffffffffffffffffffff1681526020019081526020016000208190555084600360003373ffffffffffffffffffffffffffffffffffffffff1673ffffffffffffffffffffffffffffffffffffffff16815260200190815260200160002060008673ffffffffffffffffffffffffffffffffffffffff1673ffffffffffffffffffffffffffffffffffffffff1681526020019081526020016000206000828254610e3b91906113cc565b9250508190555084600360008873ffffffffffffffffffffffffffffffffffffffff1673ffffffffffffffffffffffffffffffffffffffff16815260200190815260200160002060008673ffffffffffffffffffffffffffffffffffffffff1673ffffffffffffffffffffffffffffffffffffffff1681526020019081526020016000206000828254610ece9190611376565b925050819055508573ffffffffffffffffffffffffffffffffffffffff163373ffffffffffffffffffffffffffffffffffffffff167fddf252ad1be2c89b69c2b068fc378daa952ba7f163c4a11628f55a4df523b3ef87604051610f32919061134a565b60405180910390a36001925050509392505050565b6005602052816000526040600020602052806000526040600020600091509150505481565b600081359050610f7b816115bc565b92915050565b600081359050610f90816115d3565b92915050565b600060208284031215610fa857600080fd5b6000610fb684828501610f6c565b91505092915050565b60008060408385031215610fd257600080fd5b6000610fe085828601610f6c565b9250506020610ff185828601610f6c565b9150509250929050565b6000806000806080858703121561101157600080fd5b600061101f87828801610f6c565b945050602061103087828801610f6c565b935050604061104187828801610f81565b925050606061105287828801610f6c565b91505092959194509250565b6000806040838503121561107157600080fd5b600061107f85828601610f6c565b925050602061109085828601610f81565b9150509250929050565b6000806000606084860312156110af57600080fd5b60006110bd86828701610f6c565b93505060206110ce86828701610f81565b92505060406110df86828701610f6c565b9150509250925092565b6000602082840312156110fb57600080fd5b600061110984828501610f81565b91505092915050565b61111b81611400565b82525050565b61112a81611412565b82525050565b600061113d601d83611365565b915061114882611477565b602082019050919050565b6000611160601683611365565b915061116b826114a0565b602082019050919050565b6000611183601083611365565b915061118e826114c9565b602082019050919050565b60006111a6601383611365565b91506111b1826114f2565b602082019050919050565b60006111c9601483611365565b91506111d48261151b565b602082019050919050565b60006111ec602183611365565b91506111f782611544565b604082019050919050565b600061120f601a83611365565b915061121a82611593565b602082019050919050565b61122e8161143e565b82525050565b60006020820190506112496000830184611112565b92915050565b60006020820190506112646000830184611121565b92915050565b6000602082019050818103600083015261128381611130565b9050919050565b600060208201905081810360008301526112a381611153565b9050919050565b600060208201905081810360008301526112c381611176565b9050919050565b600060208201905081810360008301526112e381611199565b9050919050565b60006020820190508181036000830152611303816111bc565b9050919050565b60006020820190508181036000830152611323816111df565b9050919050565b6000602082019050818103600083015261134381611202565b9050919050565b600060208201905061135f6000830184611225565b92915050565b600082825260208201905092915050565b60006113818261143e565b915061138c8361143e565b9250827fffffffffffffffffffffffffffffffffffffffffffffffffffffffffffffffff038211156113c1576113c0611448565b5b828201905092915050565b60006113d78261143e565b91506113e28361143e565b9250828210156113f5576113f4611448565b5b828203905092915050565b600061140b8261141e565b9050919050565b60008115159050919050565b600073ffffffffffffffffffffffffffffffffffffffff82169050919050565b6000819050919050565b7f4e487b7100000000000000000000000000000000000000000000000000000000600052601160045260246000fd5b7f4e6f7720616c6c6f77656420636f6e747261637420746f206d696e742e000000600082015250565b7f756e646572666c6f772062616c616e63652066726f6d00000000000000000000600082015250565b7f6f766572666c6f772062616c616e636500000000000000000000000000000000600082015250565b7f6f766572666c6f772062616c616e636520746f00000000000000000000000000600082015250565b7f696e73756666696369656e742062616c616e6365000000000000000000000000600082015250565b7f4e6f7720616c6c6f77656420636f6e747261637420746f207472616e7366657260008201527f2e00000000000000000000000000000000000000000000000000000000000000602082015250565b7f726563697069656e742062616c616e6365206f766572666c6f77000000000000600082015250565b6115c581611400565b81146115d057600080fd5b50565b6115dc8161143e565b81146115e757600080fd5b5056fea2646970667358221220b98481394f8f6b4576cd105ad31eaaaa774bb5af30d6e572f8d150411e1cd66364736f6c63430008040033",
  "linkReferences": {},
  "deployedLinkReferences": {}
}